:100000000C9472000C9493000C9493000C94930045
:100010000C9493000C9493000C9493000C94930014
:100020000C9493000C9493000C9493000C94930004
:100030000C9493000C9493000C9493000C949300F4
:100040000C9493000C9493000C9493000C949300E4
:100050000C9493000C9493000C9493000C949300D4
:100060000C9493000C949A010C9493000C949300BC
:100070000C9493000C9493000C9493000C949300B4
:100080000C9493000C9493000C9493000C949300A4
:100090000C9493000C9493000C9493000C94930094
:1000A0000C9493000C9493000C9493000C94930084
:1000B0000C9493000C9493000C9493000C94930074
:1000C0000C9493000C9493000C9493000C94930064
:1000D0000C9493000C9493000C9493000C94930054
:1000E0000C94930011241FBECFEFD1E2DEBFCDBF31
:1000F00000E00CBF13E0A0E0B2E0EEEEF1E100E0C2
:100100000BBF02C007900D92AA3CB107D9F714E0CB
:10011000AAECB3E001C01D92AF38B107E1F70E942D
:10012000AE070C94F5080C940000982F9F719093E3
:100130007C0085FF06C0EBE7F0E08081886080836B
:1001400005C0EBE7F0E08081877F808381E38A95BB
:10015000F1F70000EAE7F0E080818064808380812D
:1001600084FFFDCFEAE7F0E08081806180838091A9
:100170007800909179000895E1E6F0E080E88083CE
:10018000108211B812B814B815B81AB81BB89FEF7E
:100190009DB91EB810BA11BA13BA14BA109201015F
:1001A00010920201109207011092080110920A01A8
:1001B00010920B0114BC15BC16BC17BC18BC1092D5
:1001C000800010928100109285001092840010929D
:1001D0008700109286001092890010928800109279
:1001E0008B0010928A0010928D0010928C00109259
:1001F000B6001092B0001092B1001092B2001092AE
:10020000B3001092B40010929000109291001092DE
:100210009500109294001092970010929600109200
:1002200099001092980010929B0010929A001092E0
:100230009D0010929C001092A0001092A1001092BC
:10024000A5001092A4001092A7001092A600109290
:10025000A9001092A8001092AB001092AA00109270
:10026000AD001092AC00109220011092210110926A
:10027000250110922401109227011092260110925C
:1002800029011092280110922B0110922A0110923C
:100290002D0110922C0110926E0010926F0010929E
:1002A0007000109271001092720010927300109200
:1002B000690010926A001DBA10926B0010926C00D7
:1002C00010926D00109268001092C1001092C90047
:1002D0001092D1001092310180BF10927F001092D5
:1002E0007E0010927D0010927C0083E880937A005B
:1002F00010927B001CBC1092BC000895E1ECF0E071
:1003000010821092C000A2ECB0E086E08C939FE5D2
:100310009093C4001092C50098E990838C9388E173
:1003200080830895E0ECF0E0908195FFFDCF80930D
:10033000C60008951F920F920FB60F9211248F934B
:100340008091C60080938E048F910F900FBE0F9006
:100350001F901895E0ECF0E080818823ECF7809105
:10036000C60008951F93CF93DF930E947E01CAE7D2
:10037000D4E00E94AA01182F89930E9492011A3298
:10038000C1F780917A0490E0C0979093CB0380935B
:10039000CA031092CD031092CC0380917B048A3261
:1003A00021F1AEECB3E0C2EED3E02DE734E040E063
:1003B00050E0F9013297808190E0815690408D9312
:1003C0009D93F9013197808190E0C097899399932B
:1003D0004F5F5F4F2E5F3F4FF901329780818A3226
:1003E00041F75093CD034093CC03DF91CF911F9100
:1003F00008958091F6039091F70380FF83C02091C8
:10040000F8033091F903281739070CF041C04091E7
:10041000FA035091FB032091FC033091FD03421736
:10042000530764F401979093FF038093FE032150D8
:1004300030403093010420930004E5C024173507B1
:1004400064F401979093FF038093FE032F5F3F4F67
:100450003093010420930004D6C02630310564F0A7
:1004600001979093FF038093FE0321503040309317
:10047000010420930004C7C001979093FF03809369
:10048000FE032F5F3F4F3093010420930004BBC055
:100490008217930774F401969093FF038093FE03F1
:1004A0008091FC039091FD039093010480930004DC
:1004B000AAC06091FA037091FB034091FC03509134
:1004C000FD036417750774F49C012150304030938C
:1004D000FF032093FE039A01215030403093010422
:1004E00020930004461757070CF08DC00197909396
:1004F000FF038093FE034F5F5F4F509301044093CF
:10050000000481C02091F8033091F903821793070A
:100510000CF041C04091FA035091FB032091FC0381
:100520003091FD034217530764F401969093FF0343
:100530008093FE0321503040309301042093000447
:1005400062C02417350764F401969093FF038093EB
:10055000FE032F5F3F4F309301042093000453C0EC
:100560002630310564F001969093FF038093FE03DB
:1005700021503040309301042093000444C0019680
:100580009093FF038093FE032F5F3F4F309301044E
:100590002093000438C02817390774F4019790930A
:1005A000FF038093FE038091FC039091FD039093E1
:1005B00001048093000427C06091FA037091FB034B
:1005C0004091FC035091FD036417750774F49C017E
:1005D0002F5F3F4F3093FF032093FE039A0121507A
:1005E00030403093010420930004461757075CF411
:1005F00001969093FF038093FE034F5F5F4F5093EC
:1006000001044093000420910204309103044091BE
:1006100000045091010424173507F9F46091040493
:1006200070910504E091FE03F091FF036E177F07C0
:1006300009F074C08091060490910704FC01EE0F4C
:10064000FF1FE85FFB4F22E030E0318320830196FB
:1006500090930704809306040895609104047091B8
:100660000504E091FE03F091FF036E177F0709F088
:1006700055C08091F6039091F703861797073CF5D4
:10068000421753078CF48091060490910704FC01F3
:10069000EE0FFF1FE85FFB4F1182108201969093CF
:1006A000070480930604089580910604909107043E
:1006B000FC01EE0FFF1FE85FFB4F21E030E03183CC
:1006C00020830196909307048093060408952417CD
:1006D00035078CF48091060490910704FC01EE0F1D
:1006E000FF1FE85FFB4F1182108201969093070471
:1006F0008093060408958091060490910704FC01FC
:10070000EE0FFF1FE85FFB4F21E030E031832083D5
:100710000196909307048093060408958091FC034A
:100720009091FD032817390709F055C08091F60311
:100730009091F703681779073CF5241735078CF477
:100740008091060490910704FC01EE0FFF1FE85F03
:10075000FB4F118210820196909307048093060448
:1007600008958091060490910704FC01EE0FFF1F8D
:10077000E85FFB4F21E030E03183208301969093C6
:100780000704809306040895421753078CF4809160
:10079000060490910704FC01EE0FFF1FE85FFB4F7A
:1007A00011821082019690930704809306040895A5
:1007B0008091060490910704FC01EE0FFF1FE85F93
:1007C000FB4F21E030E031832083019690930704B2
:1007D0008093060408954817590709F055C0809181
:1007E000F6039091F703E817F9073CF54217530712
:1007F0009CF48091060490910704FC01EE0FFF1F0A
:10080000E85FFB4F21E030E0318320830196909335
:1008100007048093060408958091060490910704CC
:10082000FC01EE0FFF1FE85FFB4F11821082019663
:1008300090930704809306040895241735079CF4C9
:100840008091060490910704FC01EE0FFF1FE85F02
:10085000FB4F21E030E03183208301969093070421
:100860008093060408958091060490910704FC018A
:10087000EE0FFF1FE85FFB4F1182108201969093ED
:1008800007048093060408950E940805FFCF109284
:1008900007041092060422C00E94F9018091F60319
:1008A0009091F70390930504809304048091FC03D6
:1008B0009091FD0390930304809302048091FE03C2
:1008C0009091FF039093F7038093F60380910004C7
:1008D000909101049093FD038093FC032091FE030B
:1008E0003091FF038091F8039091F903281739079D
:1008F00099F620910004309101048091FA039091BF
:10090000FB032817390741F680916C0490916D0420
:100910009093F9038093F80380916E0490916F0493
:100920009093FB038093FA0322C00E94F901809107
:10093000F6039091F703909305048093040480914B
:10094000FC039091FD039093030480930204809133
:10095000FE039091FF039093F7038093F603809139
:100960000004909101049093FD038093FC03209177
:10097000FE033091FF038091F8039091F90328174B
:10098000390799F620910004309101048091FA030F
:100990009091FB032817390741F6089581B18F60C4
:1009A00081B982B1807F82B9EAE0F1E0808188611B
:1009B0008083EBE0F1E080818861808308950E946C
:1009C000CE040895E1E2F1E010828FEF80932501DB
:1009D00091E09093240110922901809328011092B4
:1009E0002B0180932A0110922D0180932C0189EA1A
:1009F000809320018BE08083089580932801609389
:100A00002A01089592B1907F8F70982B92B9089522
:100A100080E00E940205089581E00E9495002091E7
:100A2000C8033091C9032817390738F481E090E0F2
:100A3000909371048093700404C01092710410921A
:100A4000700482E00E9495002091C8033091C90390
:100A50002817390738F481E090E09093730480936D
:100A6000720404C0109273041092720483E00E9416
:100A700095002091C8033091C9032817390738F42D
:100A800081E090E09093750480937404089510922F
:100A9000750410927404089586E00E94020508957A
:100AA00089E00E94020508958AE00E9402050895E7
:100AB00085E00E940205089584E00E9402050895E1
:100AC00082E00E9402050895F8940E94DF040E94CB
:100AD000E20478940895CF93DF930E944C058AE74F
:100AE0006AE70E94FD048FEF9FEFA8E081509040DD
:100AF000A040E1F700C000008EE66EE60E94FD0413
:100B00000E9454050E940C0580917004909171041C
:100B10008230910549F0C0E7D4E00E940C0588813D
:100B2000998182309105C9F7DF91CF910895CF93D4
:100B3000DF930E944C058AE76AE70E94FD048FEF6D
:100B40009FEFA8E081509040A040E1F700C0000076
:100B50008EE66EE60E94FD040E9458050E940C0578
:100B60008091740490917504009741F0C4E7D4E03B
:100B70000E940C05888199810097D1F7DF91CF9170
:100B80000895CF93DF930E944C058AE76AE70E949D
:100B9000FD048FEF9FEFA8E081509040A040E1F767
:100BA00000C000008EE66EE60E94FD040E9458051B
:100BB0000E940C058091720490917304813091051C
:100BC00049F0C2E7D4E00E940C0588819981813008
:100BD0009105C9F7C2E7D4E00E940C05888199818C
:100BE00081309105C9F3C2E7D4E00E940C058881E9
:100BF000998181309105C9F7DF91CF9108958FEFE9
:100C000085B9089515B808958FEF80930801089568
:100C1000109208010895EF92FF920F931F93CF93C4
:100C2000DF930E944C058AE76AE70E94FD048FEF7C
:100C30009FEBAFE081509040A040E1F700C0000082
:100C40000E9408058FEF9FEFA9E581509040A040DA
:100C5000E1F700C000000E94500585E868E70E94A7
:100C6000FD040E940C058091760490917704009712
:100C700049F40E94040681E090E090937704809309
:100C8000760406C00E94080610927704109276043B
:100C9000C0E7D4E002E714E00F2EF4E7EF2EF4E013
:100CA000FF2EF02D88819981009761F4D8018D91F4
:100CB0009C9111978130910529F4F70180819181F0
:100CC000009719F00E940C05EDCF0E94500585E8B1
:100CD00068E70E94FD048FEF9FE3A2E081509040FF
:100CE000A040E1F700C00000DF91CF911F910F916C
:100CF000FF90EF9008958F929F92AF92BF92CF9204
:100D0000DF92EF92FF920F931F93CF93DF93CDB7B4
:100D1000DEB728970FB6F894DEBF0FBECDBF409167
:100D2000780450917904FA01EE0FFF1FEE51FC4F49
:100D3000808191812091CC033091CD0342175307DC
:100D400099F40E94080580E40E9492010E94FF0528
:100D50008FEF9FEFA0EE81509040A040E1F700C0E0
:100D600000000E940206FFCF8C0101501040B80124
:100D7000660F771F660F771F7C01EE0CFF1CEE0CD1
:100D8000FF1C6E157F053CF5FA01EE0FFF1FE253C5
:100D9000FC4F808191819C01220F331F820F931F92
:100DA000DC01AA0FBB1FAA0FBB1FA60FB71FAA0FFC
:100DB000BB1FA050BE4FFE013196C701861B970B8B
:100DC000880F991F8E0F9F1F2D913D912193319375
:100DD000E817F907C9F74F5F5F4F509379044093C5
:100DE0007804C980DA808091F6039091F703A60118
:100DF000481B590BAB80BC802091FC033091FD0354
:100E0000B501621B730BAD81BE81FD01E81BF90BBF
:100E1000EF80F884C701821B930B9C01449F400123
:100E2000459F900C549F900C1124669FC001679FB2
:100E3000900D769F900D1124880E991EEE9FA001B3
:100E4000EF9F500DFE9F500D1124229FC001239F44
:100E5000900D329F900D1124840F951F88159905D0
:100E60004CF4B093F903A093F803F092FB03E092E3
:100E7000FA0308C0D092F903C092F803B092FB03C2
:100E8000A092FA032091F8033091F90330936D0496
:100E900020936C048091FA039091FB0390936F046C
:100EA00080936E040115110581F420FD07C02150C7
:100EB00030403093F9032093F8033DC02F5F3F4F3C
:100EC0003093F9032093F80336C001301105D1F4B3
:100ED00020FD0CC02F5F3F4F3093F9032093F803A0
:100EE00001979093FB038093FA0325C02150304073
:100EF0003093F9032093F80301969093FB038093BA
:100F0000FA0319C020FD0CC02F5F3F4F3093F90347
:100F10002093F80301969093FB038093FA030BC090
:100F2000215030403093F9032093F80301979093B8
:100F3000FB038093FA0328960FB6F894DEBF0FBE2A
:100F4000CDBFDF91CF911F910F91FF90EF90DF9078
:100F5000CF90BF90AF909F908F9008950E94BC005B
:100F60000E9464050E947E018FEF87B9809304017F
:100F700084B98093070188B9109205010E94AA01E3
:100F8000C82F0E949201CA32C9F7109275041092BC
:100F900074041092730410927204109271041092EF
:100FA00070040E94B2018091CA039091CB038130FA
:100FB0009105A9F48FEF9FEF9093050480930404AB
:100FC00085E090E090930304809302041092F7036D
:100FD0001092F6039093FD038093FC0316C08CE0FF
:100FE00090E0909305048093040485E090E0909352
:100FF0000304809302042BE030E03093F703209346
:10100000F6039093FD038093FC03109279041092F1
:1010100078040E9402060E947B060E9447040E94F8
:1010200008058FEF9FEFACE281509040A040E1F7C0
:1010300000C00000CC24DD2400E714E0C2E7D4E0C7
:101040000F2EF4E7EF2EF4E0FF2EF02D0F2EF8E038
:10105000AF2EF4E0BF2EF02D8824992466246A94E4
:10106000762C0E940C05D8012D913C9111972115E9
:101070003105E1F488819981009741F4F70180817D
:101080009181009799F40E940805EBCF813091057A
:1010900069F4D7018D919C9111970097E9F485EA45
:1010A00065EA0E94FD040E944C05DBCF213031052A
:1010B00081F488819981009761F4F70180819181A1
:1010C000009789F585EA60EA0E94FD040E946005A8
:1010D000C8CF2115310519F588819981009771F4E0
:1010E000D7018D919C91119781309105C1F485EACA
:1010F00060EA0E94FD040E945C05B3CF8130910537
:1011000071F4F701808191818130910509F0A9CFB7
:1011100082E868E70E94FD040E945C05A2CF2130AE
:10112000310509F09ECF888199818130910509F0C0
:1011300098CFD7018D919C911197009709F04CC0E1
:1011400088E762E80E94FD040E9460058ACF8091D2
:10115000060490910704C816D90689F483E20E9418
:1011600092018091760490917704009711F40E9487
:1011700004060E940B060E944C05630172CFBFEF6C
:10118000CB16BFEFDB0631F40E947B060E944704BA
:10119000640167CFC601880F991F8A0D9B1DFC0152
:1011A00080819181009731F40E946B058CE40E944C
:1011B00092010EC08130910531F40E94970582E5BD
:1011C0000E94920105C085E40E9492010E94C1051F
:1011D0000894C11CD11C45CFD7018D919C911197CA
:0E11E0008130910509F03DCFB2CFF894FFCFDA
:1011EE00040009000700090005000A0006000800B7
:1011FE0006000000050008000200080005000800B7
:10120E0003000900040007000400090003000700A2
:10121E00040007000700070005000800060006008E
:10122E000600080005000600060008000900080078
:10123E000700090008000700080009000700070062
:10124E00000007000300070001000800020006006E
:10125E00020008000100060002000600050006005C
:10126E00030007000400050004000700030005004A
:10127E000400050007000500050006000600040036
:10128E000600060005000400060006000900060020
:10129E00070007000800050007000500080007000A
:1012AE00080007000B000700090008000A000600EE
:1012BE00090006000A0008000000050003000500F2
:1012CE0001000600020004000200060001000400F6
:1012DE0002000400050004000300050004000300E2
:1012EE0003000300040005000400030007000300D0
:1012FE0005000400060002000600040005000200BE
:10130E0006000400090004000700050008000300A1
:10131E000700030008000500080005000B0005008B
:10132E00090006000A000400090004000A00060075
:10133E00000003000300030001000400020002008D
:10134E00010002000200040002000200050002007B
:10135E000300030004000100040003000300010069
:10136E000400010007000100050002000600000055
:10137E00050000000600020006000200090002003F
:10138E000700030008000100070001000800030029
:10139E00080003000B000300090004000A0002000D
:0A13AE00090002000A0004002D00EF
:00000001FF
